{
  "contractName": "JobMatch",
  "abi": [
    {
      "anonymous": false,
      "inputs": [
        {
          "indexed": true,
          "internalType": "address",
          "name": "user",
          "type": "address"
        },
        {
          "indexed": false,
          "internalType": "string",
          "name": "jobTitle",
          "type": "string"
        },
        {
          "indexed": false,
          "internalType": "string",
          "name": "reasoning",
          "type": "string"
        },
        {
          "indexed": false,
          "internalType": "uint256",
          "name": "timestamp",
          "type": "uint256"
        }
      ],
      "name": "PredictionStored",
      "type": "event"
    },
    {
      "inputs": [
        {
          "internalType": "address",
          "name": "",
          "type": "address"
        }
      ],
      "name": "hasPredicted",
      "outputs": [
        {
          "internalType": "bool",
          "name": "",
          "type": "bool"
        }
      ],
      "stateMutability": "view",
      "type": "function",
      "constant": true
    },
    {
      "inputs": [
        {
          "internalType": "uint256",
          "name": "",
          "type": "uint256"
        }
      ],
      "name": "predictions",
      "outputs": [
        {
          "internalType": "address",
          "name": "user",
          "type": "address"
        },
        {
          "internalType": "string",
          "name": "jobTitle",
          "type": "string"
        },
        {
          "internalType": "string",
          "name": "reasoning",
          "type": "string"
        },
        {
          "internalType": "uint256",
          "name": "timestamp",
          "type": "uint256"
        }
      ],
      "stateMutability": "view",
      "type": "function",
      "constant": true
    },
    {
      "inputs": [
        {
          "internalType": "string",
          "name": "_jobTitle",
          "type": "string"
        },
        {
          "internalType": "string",
          "name": "_reasoning",
          "type": "string"
        }
      ],
      "name": "storePrediction",
      "outputs": [],
      "stateMutability": "nonpayable",
      "type": "function"
    },
    {
      "inputs": [
        {
          "internalType": "uint256",
          "name": "index",
          "type": "uint256"
        }
      ],
      "name": "getPrediction",
      "outputs": [
        {
          "internalType": "address",
          "name": "",
          "type": "address"
        },
        {
          "internalType": "string",
          "name": "",
          "type": "string"
        },
        {
          "internalType": "string",
          "name": "",
          "type": "string"
        },
        {
          "internalType": "uint256",
          "name": "",
          "type": "uint256"
        }
      ],
      "stateMutability": "view",
      "type": "function",
      "constant": true
    },
    {
      "inputs": [],
      "name": "getPredictionCount",
      "outputs": [
        {
          "internalType": "uint256",
          "name": "",
          "type": "uint256"
        }
      ],
      "stateMutability": "view",
      "type": "function",
      "constant": true
    }
  ],
  "bytecode": "0x608060405234801561001057600080fd5b50610977806100206000396000f3fe608060405234801561001057600080fd5b50600436106100565760003560e01c80624fbbb01461005b5780630166809614610087578063049381c8146100985780636ab6d250146100cb578063fe83bece146100e0575b600080fd5b61006e6100693660046105ce565b6100f3565b60405161007e949392919061062d565b60405180910390f35b60005460405190815260200161007e565b6100bb6100a6366004610675565b60016020526000908152604090205460ff1681565b604051901515815260200161007e565b6100de6100d9366004610748565b610249565b005b61006e6100ee3660046105ce565b6103ea565b6000818154811061010357600080fd5b6000918252602090912060049091020180546001820180546001600160a01b03909216935090610132906107ac565b80601f016020809104026020016040519081016040528092919081815260200182805461015e906107ac565b80156101ab5780601f10610180576101008083540402835291602001916101ab565b820191906000526020600020905b81548152906001019060200180831161018e57829003601f168201915b5050505050908060020180546101c0906107ac565b80601f01602080910402602001604051908101604052809291908181526020018280546101ec906107ac565b80156102395780601f1061020e57610100808354040283529160200191610239565b820191906000526020600020905b81548152906001019060200180831161021c57829003601f168201915b5050505050908060030154905084565b3360009081526001602052604090205460ff16156102c25760405162461bcd60e51b815260206004820152602b60248201527f54686973206163636f756e742068617320616c7265616479206d61646520612060448201526a383932b234b1ba34b7b71760a91b60648201526084015b60405180910390fd5b60408051608081018252338152602081018481529181018390524260608201526000805460018101825590805281517f290decd9548b62a8d60345a988386fc84ba6bc95484008f6362f93160ef3e563600490920291820180546001600160a01b0319166001600160a01b0390921691909117815592519192917f290decd9548b62a8d60345a988386fc84ba6bc95484008f6362f93160ef3e5649091019061036b9082610835565b50604082015160028201906103809082610835565b506060919091015160039091015533600081815260016020819052604091829020805460ff19169091179055517fbfed8de1797cd4f4a29fd33948aa4198572eb0514b69b748ce353423833332f9906103de908590859042906108f5565b60405180910390a25050565b60006060806000808054905085106104395760405162461bcd60e51b8152602060048201526012602482015271496e646578206f7574206f662072616e676560701b60448201526064016102b9565b600080868154811061044d5761044d61092b565b6000918252602091829020604080516080810190915260049092020180546001600160a01b03168252600181018054929391929184019161048d906107ac565b80601f01602080910402602001604051908101604052809291908181526020018280546104b9906107ac565b80156105065780601f106104db57610100808354040283529160200191610506565b820191906000526020600020905b8154815290600101906020018083116104e957829003601f168201915b5050505050815260200160028201805461051f906107ac565b80601f016020809104026020016040519081016040528092919081815260200182805461054b906107ac565b80156105985780601f1061056d57610100808354040283529160200191610598565b820191906000526020600020905b81548152906001019060200180831161057b57829003601f168201915b50505091835250506003919091015460209182015281519082015160408301516060909301519199909850919650945092505050565b6000602082840312156105e057600080fd5b5035919050565b6000815180845260005b8181101561060d576020818501810151868301820152016105f1565b506000602082860101526020601f19601f83011685010191505092915050565b6001600160a01b0385168152608060208201819052600090610651908301866105e7565b828103604084015261066381866105e7565b91505082606083015295945050505050565b60006020828403121561068757600080fd5b81356001600160a01b038116811461069e57600080fd5b9392505050565b634e487b7160e01b600052604160045260246000fd5b600082601f8301126106cc57600080fd5b813567ffffffffffffffff808211156106e7576106e76106a5565b604051601f8301601f19908116603f0116810190828211818310171561070f5761070f6106a5565b8160405283815286602085880101111561072857600080fd5b836020870160208301376000602085830101528094505050505092915050565b6000806040838503121561075b57600080fd5b823567ffffffffffffffff8082111561077357600080fd5b61077f868387016106bb565b9350602085013591508082111561079557600080fd5b506107a2858286016106bb565b9150509250929050565b600181811c908216806107c057607f821691505b6020821081036107e057634e487b7160e01b600052602260045260246000fd5b50919050565b601f82111561083057600081815260208120601f850160051c8101602086101561080d5750805b601f850160051c820191505b8181101561082c57828155600101610819565b5050505b505050565b815167ffffffffffffffff81111561084f5761084f6106a5565b6108638161085d84546107ac565b846107e6565b602080601f83116001811461089857600084156108805750858301515b600019600386901b1c1916600185901b17855561082c565b600085815260208120601f198616915b828110156108c7578886015182559484019460019091019084016108a8565b50858210156108e55787850151600019600388901b60f8161c191681555b5050505050600190811b01905550565b60608152600061090860608301866105e7565b828103602084015261091a81866105e7565b915050826040830152949350505050565b634e487b7160e01b600052603260045260246000fdfea26469706673582212202c95f084643bee564fe12693b1a0cc0e541c0fef3d8636ad7818ff75a405e70564736f6c63430008130033",
  "immutableReferences": {},
  "source": "// SPDX-License-Identifier: MIT\r\npragma solidity ^0.8.19;\r\n\r\ncontract JobMatch {\r\n    struct Prediction {\r\n        address user;\r\n        string jobTitle;\r\n        string reasoning;\r\n        uint256 timestamp;\r\n    }\r\n    \r\n    Prediction[] public predictions;\r\n    // Track if an account has already made a prediction\r\n    mapping(address => bool) public hasPredicted;\r\n    \r\n    event PredictionStored(address indexed user, string jobTitle, string reasoning, uint256 timestamp);\r\n\r\n    function storePrediction(string memory _jobTitle, string memory _reasoning) public {\r\n        // Ensure the sender has not already made a prediction\r\n        require(!hasPredicted[msg.sender], \"This account has already made a prediction.\");\r\n        \r\n        // Store the prediction\r\n        predictions.push(Prediction(msg.sender, _jobTitle, _reasoning, block.timestamp));\r\n        hasPredicted[msg.sender] = true;\r\n        \r\n        emit PredictionStored(msg.sender, _jobTitle, _reasoning, block.timestamp);\r\n    }\r\n\r\n    function getPrediction(uint index) public view returns (address, string memory, string memory, uint256) {\r\n        require(index < predictions.length, \"Index out of range\");\r\n        Prediction memory pred = predictions[index];\r\n        return (pred.user, pred.jobTitle, pred.reasoning, pred.timestamp);\r\n    }\r\n\r\n    function getPredictionCount() public view returns (uint) {\r\n        return predictions.length;\r\n    }\r\n}\r\n",
  "sourcePath": "C:\\xampp\\htdocs\\BlockChain Based\\job-recommendation-blockchain\\blockchain\\contracts\\JobMatch.sol",
  "compiler": {
    "name": "solc",
    "version": "0.8.19+commit.7dd6d404.Emscripten.clang"
  },
  "schemaVersion": "3.4.16",
  "updatedAt": "2025-02-21T13:22:56.483Z",
  "networkType": "ethereum",
  "devdoc": {
    "kind": "dev",
    "methods": {},
    "version": 1
  },
  "userdoc": {
    "kind": "user",
    "methods": {},
    "version": 1
  }
}